{
  "_format": "hh-sol-artifact-1",
  "contractName": "Auction_Contract",
  "sourceName": "contracts/Auction_Contract.sol",
  "abi": [
    {
      "inputs": [
        {
          "internalType": "uint256",
          "name": "_reservePrice",
          "type": "uint256"
        },
        {
          "internalType": "uint256",
          "name": "_revealDeadline",
          "type": "uint256"
        }
      ],
      "stateMutability": "nonpayable",
      "type": "constructor"
    },
    {
      "inputs": [],
      "name": "auctionEnded",
      "outputs": [
        {
          "internalType": "bool",
          "name": "",
          "type": "bool"
        }
      ],
      "stateMutability": "view",
      "type": "function"
    },
    {
      "inputs": [
        {
          "internalType": "uint256",
          "name": "",
          "type": "uint256"
        }
      ],
      "name": "bids",
      "outputs": [
        {
          "internalType": "address",
          "name": "bidder",
          "type": "address"
        },
        {
          "internalType": "uint256",
          "name": "commitment",
          "type": "uint256"
        },
        {
          "internalType": "uint256",
          "name": "revealedValue",
          "type": "uint256"
        }
      ],
      "stateMutability": "view",
      "type": "function"
    },
    {
      "inputs": [
        {
          "internalType": "uint256",
          "name": "commitment",
          "type": "uint256"
        }
      ],
      "name": "commitBid",
      "outputs": [],
      "stateMutability": "payable",
      "type": "function"
    },
    {
      "inputs": [],
      "name": "endAuction",
      "outputs": [],
      "stateMutability": "nonpayable",
      "type": "function"
    },
    {
      "inputs": [],
      "name": "owner",
      "outputs": [
        {
          "internalType": "address",
          "name": "",
          "type": "address"
        }
      ],
      "stateMutability": "view",
      "type": "function"
    },
    {
      "inputs": [],
      "name": "reservePrice",
      "outputs": [
        {
          "internalType": "uint256",
          "name": "",
          "type": "uint256"
        }
      ],
      "stateMutability": "view",
      "type": "function"
    },
    {
      "inputs": [
        {
          "internalType": "uint256",
          "name": "value",
          "type": "uint256"
        }
      ],
      "name": "revealBid",
      "outputs": [],
      "stateMutability": "nonpayable",
      "type": "function"
    },
    {
      "inputs": [],
      "name": "revealDeadline",
      "outputs": [
        {
          "internalType": "uint256",
          "name": "",
          "type": "uint256"
        }
      ],
      "stateMutability": "view",
      "type": "function"
    },
    {
      "inputs": [],
      "name": "winningBid",
      "outputs": [
        {
          "internalType": "uint256",
          "name": "",
          "type": "uint256"
        }
      ],
      "stateMutability": "view",
      "type": "function"
    },
    {
      "inputs": [],
      "name": "winningBidderAddress",
      "outputs": [
        {
          "internalType": "address",
          "name": "",
          "type": "address"
        }
      ],
      "stateMutability": "view",
      "type": "function"
    },
    {
      "inputs": [],
      "name": "withdraw",
      "outputs": [],
      "stateMutability": "nonpayable",
      "type": "function"
    }
  ],
  "bytecode": "0x608060405234801561001057600080fd5b506040516110dc3803806110dc8339818101604052604081101561003357600080fd5b810190808051906020019092919080519060200190929190505050336000806101000a81548173ffffffffffffffffffffffffffffffffffffffff021916908373ffffffffffffffffffffffffffffffffffffffff1602179055508160018190555080600281905550505061102f806100ad6000396000f3fe60806040526004361061009c5760003560e01c8063864333741161006457806386433374146101d55780638cf80438146102025780638da5cb5b1461022d578063b14b28a31461026e578063db2e1eed14610299578063fe67a54b146102c45761009c565b80630a10ba6f146100a15780632b926184146100e25780633ccfd60b146101105780633e3b903e146101275780634423c5f114610162575b600080fd5b3480156100ad57600080fd5b506100b66102db565b604051808273ffffffffffffffffffffffffffffffffffffffff16815260200191505060405180910390f35b61010e600480360360208110156100f857600080fd5b8101908080359060200190929190505050610301565b005b34801561011c57600080fd5b50610125610512565b005b34801561013357600080fd5b506101606004803603602081101561014a57600080fd5b8101908080359060200190929190505050610817565b005b34801561016e57600080fd5b5061019b6004803603602081101561018557600080fd5b8101908080359060200190929190505050610afe565b604051808473ffffffffffffffffffffffffffffffffffffffff168152602001838152602001828152602001935050505060405180910390f35b3480156101e157600080fd5b506101ea610b58565b60405180821515815260200191505060405180910390f35b34801561020e57600080fd5b50610217610b6b565b6040518082815260200191505060405180910390f35b34801561023957600080fd5b50610242610b71565b604051808273ffffffffffffffffffffffffffffffffffffffff16815260200191505060405180910390f35b34801561027a57600080fd5b50610283610b95565b6040518082815260200191505060405180910390f35b3480156102a557600080fd5b506102ae610b9b565b6040518082815260200191505060405180910390f35b3480156102d057600080fd5b506102d9610ba1565b005b600560009054906101000a900473ffffffffffffffffffffffffffffffffffffffff1681565b600360009054906101000a900460ff1615610384576040517f08c379a000000000000000000000000000000000000000000000000000000000815260040180806020018281038252601a8152602001807f41756374696f6e2068617320616c726561647920656e6465642e00000000000081525060200191505060405180910390fd5b60025442106103fb576040517f08c379a00000000000000000000000000000000000000000000000000000000081526004018080602001828103825260178152602001807f52657665616c2070686173652068617320656e6465642e00000000000000000081525060200191505060405180910390fd5b6001548111610455576040517f08c379a0000000000000000000000000000000000000000000000000000000008152600401808060200182810382526027815260200180610fd36027913960400191505060405180910390fd5b600460405180606001604052803373ffffffffffffffffffffffffffffffffffffffff1681526020018381526020016000815250908060018154018082558091505060019003906000526020600020906003020160009091909190915060008201518160000160006101000a81548173ffffffffffffffffffffffffffffffffffffffff021916908373ffffffffffffffffffffffffffffffffffffffff1602179055506020820151816001015560408201518160020155505050565b60025442101561058a576040517f08c379a000000000000000000000000000000000000000000000000000000000815260040180806020018281038252601e8152602001807f52657665616c207068617365206973207374696c6c206f6e676f696e672e000081525060200191505060405180910390fd5b600360009054906101000a900460ff1661060c576040517f08c379a000000000000000000000000000000000000000000000000000000000815260040180806020018281038252601a8152602001807f41756374696f6e20686173206e6f7420656e646564207965742e00000000000081525060200191505060405180910390fd5b60005b600480549050811015610814573373ffffffffffffffffffffffffffffffffffffffff166004828154811061064057fe5b906000526020600020906003020160000160009054906101000a900473ffffffffffffffffffffffffffffffffffffffff1673ffffffffffffffffffffffffffffffffffffffff16141561080757600560009054906101000a900473ffffffffffffffffffffffffffffffffffffffff1673ffffffffffffffffffffffffffffffffffffffff16600482815481106106d457fe5b906000526020600020906003020160000160009054906101000a900473ffffffffffffffffffffffffffffffffffffffff1673ffffffffffffffffffffffffffffffffffffffff1614156107a05760006006546004838154811061073457fe5b906000526020600020906003020160020154039050600081111561079a573373ffffffffffffffffffffffffffffffffffffffff166108fc829081150290604051600060405180830381858888f19350505050158015610798573d6000803e3d6000fd5b505b50610806565b3373ffffffffffffffffffffffffffffffffffffffff166108fc600483815481106107c757fe5b9060005260206000209060030201600201549081150290604051600060405180830381858888f19350505050158015610804573d6000803e3d6000fd5b505b5b808060010191505061060f565b50565b600360009054906101000a900460ff161561089a576040517f08c379a000000000000000000000000000000000000000000000000000000000815260040180806020018281038252601a8152602001807f41756374696f6e2068617320616c726561647920656e6465642e00000000000081525060200191505060405180910390fd5b6002544210610911576040517f08c379a00000000000000000000000000000000000000000000000000000000081526004018080602001828103825260178152602001807f52657665616c2070686173652068617320656e6465642e00000000000000000081525060200191505060405180910390fd5b600081905060005b600480549050811015610a8c573373ffffffffffffffffffffffffffffffffffffffff166004828154811061094a57fe5b906000526020600020906003020160000160009054906101000a900473ffffffffffffffffffffffffffffffffffffffff1673ffffffffffffffffffffffffffffffffffffffff161480156109bc575081600482815481106109a857fe5b906000526020600020906003020160010154145b15610a7f576000600482815481106109d057fe5b90600052602060002090600302016002015414610a55576040517f08c379a00000000000000000000000000000000000000000000000000000000081526004018080602001828103825260158152602001807f42696420616c72656164792072657665616c65642e000000000000000000000081525060200191505060405180910390fd5b8260048281548110610a6357fe5b9060005260206000209060030201600201819055505050610afb565b8080600101915050610919565b506040517f08c379a000000000000000000000000000000000000000000000000000000000815260040180806020018281038252601d8152602001807f4e6f206d61746368696e6720636f6d6d69746d656e7420666f756e642e00000081525060200191505060405180910390fd5b50565b60048181548110610b0e57600080fd5b90600052602060002090600302016000915090508060000160009054906101000a900473ffffffffffffffffffffffffffffffffffffffff16908060010154908060020154905083565b600360009054906101000a900460ff1681565b60065481565b60008054906101000a900473ffffffffffffffffffffffffffffffffffffffff1681565b60025481565b60015481565b60008054906101000a900473ffffffffffffffffffffffffffffffffffffffff1673ffffffffffffffffffffffffffffffffffffffff163373ffffffffffffffffffffffffffffffffffffffff1614610c45576040517f08c379a0000000000000000000000000000000000000000000000000000000008152600401808060200182810382526026815260200180610fad6026913960400191505060405180910390fd5b600254421015610cbd576040517f08c379a000000000000000000000000000000000000000000000000000000000815260040180806020018281038252601e8152602001807f52657665616c207068617365206973207374696c6c206f6e676f696e672e000081525060200191505060405180910390fd5b600360009054906101000a900460ff1615610d40576040517f08c379a000000000000000000000000000000000000000000000000000000000815260040180806020018281038252601a8152602001807f41756374696f6e2068617320616c726561647920656e6465642e00000000000081525060200191505060405180910390fd5b6001600360006101000a81548160ff0219169083151502179055506000600154905060005b600480549050811015610e4d578160048281548110610d8057fe5b9060005260206000209060030201600201541115610e405760048181548110610da557fe5b906000526020600020906003020160020154915060048181548110610dc657fe5b906000526020600020906003020160000160009054906101000a900473ffffffffffffffffffffffffffffffffffffffff16600560006101000a81548173ffffffffffffffffffffffffffffffffffffffff021916908373ffffffffffffffffffffffffffffffffffffffff160217905550816006819055505b8080600101915050610d65565b5060005b600480549050811015610fa857600560009054906101000a900473ffffffffffffffffffffffffffffffffffffffff1673ffffffffffffffffffffffffffffffffffffffff1660048281548110610ea457fe5b906000526020600020906003020160000160009054906101000a900473ffffffffffffffffffffffffffffffffffffffff1673ffffffffffffffffffffffffffffffffffffffff1614610f9b57600060048281548110610f0057fe5b906000526020600020906003020160000160009054906101000a900473ffffffffffffffffffffffffffffffffffffffff1690508073ffffffffffffffffffffffffffffffffffffffff166108fc60048481548110610f5b57fe5b9060005260206000209060030201600201549081150290604051600060405180830381858888f19350505050158015610f98573d6000803e3d6000fd5b50505b8080600101915050610e51565b505056fe4f6e6c7920746865206f776e65722063616e2063616c6c20746869732066756e6374696f6e2e426964206d7573742062652067726561746572207468616e20726573657276652070726963652ea2646970667358221220ad12eb0bc260781d2ba857d98b1899c19daef4dcedd806801bc31130479dba8164736f6c63430007040033",
  "linkReferences": {},
  "deployedLinkReferences": {}
}